{
  "contractName": "rentcar",
  "abi": [
    {
      "constant": false,
      "inputs": [
        {
          "internalType": "address",
          "name": "user",
          "type": "address"
        },
        {
          "internalType": "string",
          "name": "pickup",
          "type": "string"
        },
        {
          "internalType": "string",
          "name": "dropoff",
          "type": "string"
        },
        {
          "internalType": "string",
          "name": "pickupdate",
          "type": "string"
        },
        {
          "internalType": "string",
          "name": "dropoffdate",
          "type": "string"
        },
        {
          "internalType": "string",
          "name": "pickuptime",
          "type": "string"
        },
        {
          "internalType": "string",
          "name": "cartype",
          "type": "string"
        },
        {
          "internalType": "string",
          "name": "phoneno",
          "type": "string"
        },
        {
          "internalType": "string",
          "name": "email",
          "type": "string"
        }
      ],
      "name": "addRequest",
      "outputs": [],
      "payable": false,
      "stateMutability": "nonpayable",
      "type": "function"
    },
    {
      "constant": true,
      "inputs": [],
      "name": "viewRequests",
      "outputs": [
        {
          "internalType": "address[]",
          "name": "",
          "type": "address[]"
        },
        {
          "internalType": "string[]",
          "name": "",
          "type": "string[]"
        },
        {
          "internalType": "string[]",
          "name": "",
          "type": "string[]"
        },
        {
          "internalType": "string[]",
          "name": "",
          "type": "string[]"
        },
        {
          "internalType": "string[]",
          "name": "",
          "type": "string[]"
        },
        {
          "internalType": "string[]",
          "name": "",
          "type": "string[]"
        },
        {
          "internalType": "string[]",
          "name": "",
          "type": "string[]"
        },
        {
          "internalType": "string[]",
          "name": "",
          "type": "string[]"
        },
        {
          "internalType": "string[]",
          "name": "",
          "type": "string[]"
        }
      ],
      "payable": false,
      "stateMutability": "view",
      "type": "function"
    }
  ],
  "bytecode": "0x608060405234801561001057600080fd5b50611130806100206000396000f3fe608060405234801561001057600080fd5b50600436106100365760003560e01c80633b3f9f781461003b578063521e686d14610057575b600080fd5b61005560048036036100509190810190610bd1565b61007d565b005b61005f6102e6565b60405161007499989796959493929190610e9e565b60405180910390f35b60008990806001815401808255809150509060018203906000526020600020016000909192909190916101000a81548173ffffffffffffffffffffffffffffffffffffffff021916908373ffffffffffffffffffffffffffffffffffffffff160217905550506001889080600181540180825580915050906001820390600052602060002001600090919290919091509080519060200190610120929190610ac3565b5050600287908060018154018082558091505090600182039060005260206000200160009091929091909150908051906020019061015f929190610ac3565b5050600386908060018154018082558091505090600182039060005260206000200160009091929091909150908051906020019061019e929190610ac3565b505060048590806001815401808255809150509060018203906000526020600020016000909192909190915090805190602001906101dd929190610ac3565b5050600584908060018154018082558091505090600182039060005260206000200160009091929091909150908051906020019061021c929190610ac3565b5050600683908060018154018082558091505090600182039060005260206000200160009091929091909150908051906020019061025b929190610ac3565b5050600782908060018154018082558091505090600182039060005260206000200160009091929091909150908051906020019061029a929190610ac3565b505060088190806001815401808255809150509060018203906000526020600020016000909192909190915090805190602001906102d9929190610ac3565b5050505050505050505050565b60608060608060608060608060606000600160026003600460056006600760088880548060200260200160405190810160405280929190818152602001828054801561038757602002820191906000526020600020905b8160009054906101000a900473ffffffffffffffffffffffffffffffffffffffff1673ffffffffffffffffffffffffffffffffffffffff168152602001906001019080831161033d575b5050505050985087805480602002602001604051908101604052809291908181526020016000905b8282101561046b578382906000526020600020018054600181600116156101000203166002900480601f0160208091040260200160405190810160405280929190818152602001828054600181600116156101000203166002900480156104575780601f1061042c57610100808354040283529160200191610457565b820191906000526020600020905b81548152906001019060200180831161043a57829003601f168201915b5050505050815260200190600101906103af565b50505050975086805480602002602001604051908101604052809291908181526020016000905b8282101561054e578382906000526020600020018054600181600116156101000203166002900480601f01602080910402602001604051908101604052809291908181526020018280546001816001161561010002031660029004801561053a5780601f1061050f5761010080835404028352916020019161053a565b820191906000526020600020905b81548152906001019060200180831161051d57829003601f168201915b505050505081526020019060010190610492565b50505050965085805480602002602001604051908101604052809291908181526020016000905b82821015610631578382906000526020600020018054600181600116156101000203166002900480601f01602080910402602001604051908101604052809291908181526020018280546001816001161561010002031660029004801561061d5780601f106105f25761010080835404028352916020019161061d565b820191906000526020600020905b81548152906001019060200180831161060057829003601f168201915b505050505081526020019060010190610575565b50505050955084805480602002602001604051908101604052809291908181526020016000905b82821015610714578382906000526020600020018054600181600116156101000203166002900480601f0160208091040260200160405190810160405280929190818152602001828054600181600116156101000203166002900480156107005780601f106106d557610100808354040283529160200191610700565b820191906000526020600020905b8154815290600101906020018083116106e357829003601f168201915b505050505081526020019060010190610658565b50505050945083805480602002602001604051908101604052809291908181526020016000905b828210156107f7578382906000526020600020018054600181600116156101000203166002900480601f0160208091040260200160405190810160405280929190818152602001828054600181600116156101000203166002900480156107e35780601f106107b8576101008083540402835291602001916107e3565b820191906000526020600020905b8154815290600101906020018083116107c657829003601f168201915b50505050508152602001906001019061073b565b50505050935082805480602002602001604051908101604052809291908181526020016000905b828210156108da578382906000526020600020018054600181600116156101000203166002900480601f0160208091040260200160405190810160405280929190818152602001828054600181600116156101000203166002900480156108c65780601f1061089b576101008083540402835291602001916108c6565b820191906000526020600020905b8154815290600101906020018083116108a957829003601f168201915b50505050508152602001906001019061081e565b50505050925081805480602002602001604051908101604052809291908181526020016000905b828210156109bd578382906000526020600020018054600181600116156101000203166002900480601f0160208091040260200160405190810160405280929190818152602001828054600181600116156101000203166002900480156109a95780601f1061097e576101008083540402835291602001916109a9565b820191906000526020600020905b81548152906001019060200180831161098c57829003601f168201915b505050505081526020019060010190610901565b50505050915080805480602002602001604051908101604052809291908181526020016000905b82821015610aa0578382906000526020600020018054600181600116156101000203166002900480601f016020809104026020016040519081016040528092919081815260200182805460018160011615610100020316600290048015610a8c5780601f10610a6157610100808354040283529160200191610a8c565b820191906000526020600020905b815481529060010190602001808311610a6f57829003601f168201915b5050505050815260200190600101906109e4565b505050509050985098509850985098509850985098509850909192939495969798565b828054600181600116156101000203166002900490600052602060002090601f016020900481019282601f10610b0457805160ff1916838001178555610b32565b82800160010185558215610b32579182015b82811115610b31578251825591602001919060010190610b16565b5b509050610b3f9190610b43565b5090565b610b6591905b80821115610b61576000816000905550600101610b49565b5090565b90565b600081359050610b77816110d6565b92915050565b600082601f830112610b8e57600080fd5b8135610ba1610b9c82610f97565b610f6a565b91508082526020830160208301858383011115610bbd57600080fd5b610bc8838284611083565b50505092915050565b60008060008060008060008060006101208a8c031215610bf057600080fd5b6000610bfe8c828d01610b68565b99505060208a013567ffffffffffffffff811115610c1b57600080fd5b610c278c828d01610b7d565b98505060408a013567ffffffffffffffff811115610c4457600080fd5b610c508c828d01610b7d565b97505060608a013567ffffffffffffffff811115610c6d57600080fd5b610c798c828d01610b7d565b96505060808a013567ffffffffffffffff811115610c9657600080fd5b610ca28c828d01610b7d565b95505060a08a013567ffffffffffffffff811115610cbf57600080fd5b610ccb8c828d01610b7d565b94505060c08a013567ffffffffffffffff811115610ce857600080fd5b610cf48c828d01610b7d565b93505060e08a013567ffffffffffffffff811115610d1157600080fd5b610d1d8c828d01610b7d565b9250506101008a013567ffffffffffffffff811115610d3b57600080fd5b610d478c828d01610b7d565b9150509295985092959850929598565b6000610d638383610d83565b60208301905092915050565b6000610d7b8383610e65565b905092915050565b610d8c81611051565b82525050565b6000610d9d82610fe3565b610da7818561101e565b9350610db283610fc3565b8060005b83811015610de3578151610dca8882610d57565b9750610dd583611004565b925050600181019050610db6565b5085935050505092915050565b6000610dfb82610fee565b610e05818561102f565b935083602082028501610e1785610fd3565b8060005b85811015610e535784840389528151610e348582610d6f565b9450610e3f83611011565b925060208a01995050600181019050610e1b565b50829750879550505050505092915050565b6000610e7082610ff9565b610e7a8185611040565b9350610e8a818560208601611092565b610e93816110c5565b840191505092915050565b6000610120820190508181036000830152610eb9818c610d92565b90508181036020830152610ecd818b610df0565b90508181036040830152610ee1818a610df0565b90508181036060830152610ef58189610df0565b90508181036080830152610f098188610df0565b905081810360a0830152610f1d8187610df0565b905081810360c0830152610f318186610df0565b905081810360e0830152610f458185610df0565b9050818103610100830152610f5a8184610df0565b90509a9950505050505050505050565b6000604051905081810181811067ffffffffffffffff82111715610f8d57600080fd5b8060405250919050565b600067ffffffffffffffff821115610fae57600080fd5b601f19601f8301169050602081019050919050565b6000819050602082019050919050565b6000819050602082019050919050565b600081519050919050565b600081519050919050565b600081519050919050565b6000602082019050919050565b6000602082019050919050565b600082825260208201905092915050565b600082825260208201905092915050565b600082825260208201905092915050565b600061105c82611063565b9050919050565b600073ffffffffffffffffffffffffffffffffffffffff82169050919050565b82818337600083830152505050565b60005b838110156110b0578082015181840152602081019050611095565b838111156110bf576000848401525b50505050565b6000601f19601f8301169050919050565b6110df81611051565b81146110ea57600080fd5b5056fea365627a7a72315820603f9b4199f82a65a30711cb025a70a786d294622d8b6e90311ea3bf01c960fb6c6578706572696d656e74616cf564736f6c63430005100040",
  "source": "// SPDX-License-Identifier: MIT\npragma experimental ABIEncoderV2;\npragma solidity >=0.4.22 <0.9.0;\n\ncontract rentcar {\n  \n  address[] _users;\n  string[] _pickups;\n  string[] _dropoffs;\n  string[] _pickupdates;\n  string[] _dropoffdates;\n  string[] _pickuptime;\n  string[] _cartypes;\n  string[] _phonenos;\n  string[] _emailids;\n\n  function addRequest(address user,string memory pickup,string memory dropoff,string memory pickupdate,string memory dropoffdate,string memory pickuptime,string memory cartype, string memory phoneno,string memory email) public {\n\n    _users.push(user);\n    _pickups.push(pickup);\n    _dropoffs.push(dropoff);\n    _pickupdates.push(pickupdate);\n    _dropoffdates.push(dropoffdate);\n    _pickuptime.push(pickuptime);\n    _cartypes.push(cartype);\n    _phonenos.push(phoneno);\n    _emailids.push(email);\n\n  }\n\n  function viewRequests() public view returns(address[] memory,string[] memory,string[] memory,string[] memory,string[] memory,string[] memory,string[] memory,string[] memory,string[] memory) {\n    return (_users,_pickups,_dropoffs,_pickupdates,_dropoffdates,_pickuptime,_cartypes,_phonenos,_emailids);\n  }\n}\n",
  "sourcePath": "/Users/maddysravs/rent-a-car-blockchain/contracts/rentcar.sol",
  "compiler": {
    "name": "solc",
    "version": "0.5.16+commit.9c3226ce.Emscripten.clang"
  },
  "schemaVersion": "3.4.7",
  "updatedAt": "2022-06-30T10:34:44.526Z",
  "networkType": "ethereum",
  "devdoc": {
    "methods": {}
  },
  "userdoc": {
    "methods": {}
  }
}